{
  "abi": [
    {
      "inputs": [],
      "stateMutability": "nonpayable",
      "type": "constructor"
    },
    {
      "anonymous": false,
      "inputs": [
        {
          "indexed": true,
          "internalType": "address",
          "name": "owner",
          "type": "address"
        },
        {
          "indexed": true,
          "internalType": "address",
          "name": "approved",
          "type": "address"
        },
        {
          "indexed": true,
          "internalType": "uint256",
          "name": "tokenId",
          "type": "uint256"
        }
      ],
      "name": "Approval",
      "type": "event"
    },
    {
      "anonymous": false,
      "inputs": [
        {
          "indexed": true,
          "internalType": "address",
          "name": "owner",
          "type": "address"
        },
        {
          "indexed": true,
          "internalType": "address",
          "name": "operator",
          "type": "address"
        },
        {
          "indexed": false,
          "internalType": "bool",
          "name": "approved",
          "type": "bool"
        }
      ],
      "name": "ApprovalForAll",
      "type": "event"
    },
    {
      "anonymous": false,
      "inputs": [
        {
          "indexed": true,
          "internalType": "uint256",
          "name": "tokenId",
          "type": "uint256"
        }
      ],
      "name": "BallsCreated",
      "type": "event"
    },
    {
      "anonymous": false,
      "inputs": [
        {
          "indexed": true,
          "internalType": "address",
          "name": "previousOwner",
          "type": "address"
        },
        {
          "indexed": true,
          "internalType": "address",
          "name": "newOwner",
          "type": "address"
        }
      ],
      "name": "OwnershipTransferred",
      "type": "event"
    },
    {
      "anonymous": false,
      "inputs": [
        {
          "indexed": true,
          "internalType": "address",
          "name": "from",
          "type": "address"
        },
        {
          "indexed": true,
          "internalType": "address",
          "name": "to",
          "type": "address"
        },
        {
          "indexed": true,
          "internalType": "uint256",
          "name": "tokenId",
          "type": "uint256"
        }
      ],
      "name": "Transfer",
      "type": "event"
    },
    {
      "inputs": [
        {
          "internalType": "address",
          "name": "to",
          "type": "address"
        },
        {
          "internalType": "uint256",
          "name": "tokenId",
          "type": "uint256"
        }
      ],
      "name": "approve",
      "outputs": [],
      "stateMutability": "nonpayable",
      "type": "function"
    },
    {
      "inputs": [
        {
          "internalType": "address",
          "name": "owner",
          "type": "address"
        }
      ],
      "name": "balanceOf",
      "outputs": [
        {
          "internalType": "uint256",
          "name": "",
          "type": "uint256"
        }
      ],
      "stateMutability": "view",
      "type": "function"
    },
    {
      "inputs": [
        {
          "components": [
            {
              "internalType": "uint256",
              "name": "x",
              "type": "uint256"
            },
            {
              "internalType": "uint256",
              "name": "y",
              "type": "uint256"
            },
            {
              "internalType": "uint256",
              "name": "width",
              "type": "uint256"
            },
            {
              "internalType": "uint256",
              "name": "height",
              "type": "uint256"
            },
            {
              "internalType": "string",
              "name": "fill",
              "type": "string"
            },
            {
              "internalType": "uint256",
              "name": "randomSeed",
              "type": "uint256"
            }
          ],
          "internalType": "struct BallsOfArt.Ball",
          "name": "ball",
          "type": "tuple"
        }
      ],
      "name": "ballSvg",
      "outputs": [
        {
          "internalType": "string",
          "name": "",
          "type": "string"
        }
      ],
      "stateMutability": "pure",
      "type": "function"
    },
    {
      "inputs": [
        {
          "internalType": "uint256",
          "name": "maxSize",
          "type": "uint256"
        },
        {
          "internalType": "uint256",
          "name": "randomSeed",
          "type": "uint256"
        }
      ],
      "name": "drawBallSize",
      "outputs": [
        {
          "internalType": "uint256",
          "name": "size",
          "type": "uint256"
        }
      ],
      "stateMutability": "pure",
      "type": "function"
    },
    {
      "inputs": [
        {
          "internalType": "uint256",
          "name": "randomSeed1",
          "type": "uint256"
        },
        {
          "internalType": "uint256",
          "name": "randomSeed2",
          "type": "uint256"
        },
        {
          "internalType": "uint256",
          "name": "randomSeed3",
          "type": "uint256"
        }
      ],
      "name": "generateFinalSvg",
      "outputs": [
        {
          "internalType": "string",
          "name": "",
          "type": "string"
        }
      ],
      "stateMutability": "view",
      "type": "function"
    },
    {
      "inputs": [
        {
          "internalType": "uint256",
          "name": "lineNumber",
          "type": "uint256"
        },
        {
          "internalType": "uint256",
          "name": "randomSeed",
          "type": "uint256"
        }
      ],
      "name": "generateLineSvg",
      "outputs": [
        {
          "internalType": "string",
          "name": "",
          "type": "string"
        }
      ],
      "stateMutability": "pure",
      "type": "function"
    },
    {
      "inputs": [
        {
          "internalType": "uint256",
          "name": "tokenId",
          "type": "uint256"
        }
      ],
      "name": "getApproved",
      "outputs": [
        {
          "internalType": "address",
          "name": "",
          "type": "address"
        }
      ],
      "stateMutability": "view",
      "type": "function"
    },
    {
      "inputs": [
        {
          "internalType": "address",
          "name": "owner",
          "type": "address"
        },
        {
          "internalType": "address",
          "name": "operator",
          "type": "address"
        }
      ],
      "name": "isApprovedForAll",
      "outputs": [
        {
          "internalType": "bool",
          "name": "",
          "type": "bool"
        }
      ],
      "stateMutability": "view",
      "type": "function"
    },
    {
      "inputs": [
        {
          "internalType": "uint256",
          "name": "tokenId",
          "type": "uint256"
        }
      ],
      "name": "mintBallsOfArt",
      "outputs": [],
      "stateMutability": "payable",
      "type": "function"
    },
    {
      "inputs": [],
      "name": "mintPrice",
      "outputs": [
        {
          "internalType": "uint256",
          "name": "",
          "type": "uint256"
        }
      ],
      "stateMutability": "view",
      "type": "function"
    },
    {
      "inputs": [],
      "name": "name",
      "outputs": [
        {
          "internalType": "string",
          "name": "",
          "type": "string"
        }
      ],
      "stateMutability": "view",
      "type": "function"
    },
    {
      "inputs": [],
      "name": "owner",
      "outputs": [
        {
          "internalType": "address",
          "name": "",
          "type": "address"
        }
      ],
      "stateMutability": "view",
      "type": "function"
    },
    {
      "inputs": [
        {
          "internalType": "uint256",
          "name": "tokenId",
          "type": "uint256"
        }
      ],
      "name": "ownerOf",
      "outputs": [
        {
          "internalType": "address",
          "name": "",
          "type": "address"
        }
      ],
      "stateMutability": "view",
      "type": "function"
    },
    {
      "inputs": [],
      "name": "renounceOwnership",
      "outputs": [],
      "stateMutability": "nonpayable",
      "type": "function"
    },
    {
      "inputs": [
        {
          "internalType": "address",
          "name": "from",
          "type": "address"
        },
        {
          "internalType": "address",
          "name": "to",
          "type": "address"
        },
        {
          "internalType": "uint256",
          "name": "tokenId",
          "type": "uint256"
        }
      ],
      "name": "safeTransferFrom",
      "outputs": [],
      "stateMutability": "nonpayable",
      "type": "function"
    },
    {
      "inputs": [
        {
          "internalType": "address",
          "name": "from",
          "type": "address"
        },
        {
          "internalType": "address",
          "name": "to",
          "type": "address"
        },
        {
          "internalType": "uint256",
          "name": "tokenId",
          "type": "uint256"
        },
        {
          "internalType": "bytes",
          "name": "data",
          "type": "bytes"
        }
      ],
      "name": "safeTransferFrom",
      "outputs": [],
      "stateMutability": "nonpayable",
      "type": "function"
    },
    {
      "inputs": [
        {
          "internalType": "address",
          "name": "operator",
          "type": "address"
        },
        {
          "internalType": "bool",
          "name": "approved",
          "type": "bool"
        }
      ],
      "name": "setApprovalForAll",
      "outputs": [],
      "stateMutability": "nonpayable",
      "type": "function"
    },
    {
      "inputs": [
        {
          "internalType": "bytes4",
          "name": "interfaceId",
          "type": "bytes4"
        }
      ],
      "name": "supportsInterface",
      "outputs": [
        {
          "internalType": "bool",
          "name": "",
          "type": "bool"
        }
      ],
      "stateMutability": "view",
      "type": "function"
    },
    {
      "inputs": [],
      "name": "symbol",
      "outputs": [
        {
          "internalType": "string",
          "name": "",
          "type": "string"
        }
      ],
      "stateMutability": "view",
      "type": "function"
    },
    {
      "inputs": [
        {
          "internalType": "uint256",
          "name": "tokenId",
          "type": "uint256"
        }
      ],
      "name": "tokenURI",
      "outputs": [
        {
          "internalType": "string",
          "name": "",
          "type": "string"
        }
      ],
      "stateMutability": "view",
      "type": "function"
    },
    {
      "inputs": [],
      "name": "totalSupply",
      "outputs": [
        {
          "internalType": "uint256",
          "name": "",
          "type": "uint256"
        }
      ],
      "stateMutability": "view",
      "type": "function"
    },
    {
      "inputs": [
        {
          "internalType": "address",
          "name": "from",
          "type": "address"
        },
        {
          "internalType": "address",
          "name": "to",
          "type": "address"
        },
        {
          "internalType": "uint256",
          "name": "tokenId",
          "type": "uint256"
        }
      ],
      "name": "transferFrom",
      "outputs": [],
      "stateMutability": "nonpayable",
      "type": "function"
    },
    {
      "inputs": [
        {
          "internalType": "address",
          "name": "newOwner",
          "type": "address"
        }
      ],
      "name": "transferOwnership",
      "outputs": [],
      "stateMutability": "nonpayable",
      "type": "function"
    },
    {
      "inputs": [],
      "name": "withdraw",
      "outputs": [],
      "stateMutability": "nonpayable",
      "type": "function"
    }
  ],
  "bytecode": {
    "object": "0x60803462000366576001600160401b03906040908082018381118282101762000350578252600c81526020906b10985b1b1cc81bd988105c9d60a21b82820152825193838501858110828211176200035057845260048552631090549560e21b83860152815181811162000350576000938454916001948584811c9416801562000345575b8385101462000331578190601f94858111620002de575b5083908583116001146200027a5788926200026e575b5050600019600383901b1c191690851b1785555b86519283116200025a5783548481811c911680156200024f575b828210146200023b57828111620001f3575b50809183116001146200018c57508394958293949262000180575b5050600019600383901b1c191690821b1790555b60068054336001600160a01b0319821681179092559251926001600160a01b03167f8be0079c531659141344cd1fd0a4f28419497f9722a3daafe3b4186f6b6457e08380a3600755660aa87bee5380006008556135ef90816200036c8239f35b0151905038806200010c565b90601f198316968486528286209286905b898210620001db575050838596979810620001c1575b505050811b01905562000120565b015160001960f88460031b161c19169055388080620001b3565b8087859682949686015181550195019301906200019d565b8486528186208380860160051c82019284871062000231575b0160051c019085905b82811062000225575050620000f1565b87815501859062000215565b925081926200020c565b634e487b7160e01b86526022600452602486fd5b90607f1690620000df565b634e487b7160e01b85526041600452602485fd5b015190503880620000b1565b8880528489208894509190601f1984168a5b87828210620002c75750508411620002ad575b505050811b018555620000c5565b015160001960f88460031b161c191690553880806200029f565b8385015186558b979095019493840193016200028c565b9091508780528388208580850160051c82019286861062000327575b918991869594930160051c01915b828110620003185750506200009b565b8a815585945089910162000308565b92508192620002fa565b634e487b7160e01b87526022600452602487fd5b93607f169362000084565b634e487b7160e01b600052604160045260246000fd5b600080fdfe6080604081815260048036101561001557600080fd5b600092833560e01c90816301ffc9a7146115325750806306fdde031461148a578063081812fc1461146a578063095ea7b3146112fd57806318160ddd146112de57806323b872dd146112b457806328c825f1146112915780632afeb53314610f415780633ccfd60b14610efb57806342842e0e14610ed25780636352211e14610ea157806365161ac91461093c5780636817c76c1461091d57806370a0823114610887578063715018a61461082a5780638da5cb5b1461080157806395d89b411461071e578063a22cb46514610653578063b88d4fde146105eb578063c87b56dd14610351578063ca424d7614610328578063db08bd5014610246578063e985e9c5146101f45763f2fde38b1461012b57600080fd5b346101f05760203660031901126101f0576101446115e6565b9061014d61175d565b6001600160a01b0391821692831561019e575050600654826001600160601b0360a01b821617600655167f8be0079c531659141344cd1fd0a4f28419497f9722a3daafe3b4186f6b6457e08380a380f35b906020608492519162461bcd60e51b8352820152602660248201527f4f776e61626c653a206e6577206f776e657220697320746865207a65726f206160448201526564647265737360d01b6064820152fd5b8280fd5b50503461024257806003193601126102425760ff816020936102146115e6565b61021c611601565b6001600160a01b0391821683526005875283832091168252855220549151911615158152f35b5080fd5b50913461031257600319926020368501126102425780359167ffffffffffffffff948584116102425760c09084360301126103125783519460c086018681108282111761031557855283830135865260248401356020870152604484013585870152606484013560608701526084840135908111610242578301903660238301121561031257506102fb926102ea61030e969360a493602436928201359101611726565b6080840152013560a0820152611d34565b90519182916020835260208301906115c1565b0390f35b80fd5b634e487b7160e01b835260418452602483fd5b50913461031257606036600319011261031257506102fb61030e926044359060243590356122e9565b508234610312576020918260031936011261024257356000818152600260205260409020549091906001600160a01b03161561031257610390826134d9565b9181526009835283812090845191818154906103ab82611827565b928386526001928884821691826000146105c0575050600114610584575b888861030e6105248a6103e760de6103ec8d6103e7818f03826116e8565b613317565b9287519384917f7b226e616d65223a202242616c6c73206f6620417274202300000000000000008984015261042a815180928b60388701910161159e565b82017f222c20226465736372697074696f6e223a202242616c6c73206f66204172742060388201527f61726520616e206173736f72746d656e74206f66203131312066756c6c79206f60588201527f6e2d636861696e2c2072616e646f6d6c792067656e6572617465642c2068617060788201527f7079206172742062616c6c73222c202261747472696275746573223a2022222c60988201527f2022696d616765223a22646174613a696d6167652f7376672b786d6c3b62617360b882015263194d8d0b60e21b60d882015261050a825180938b60dc8501910161159e565b0161227d60f01b60dc8201520360be8101845201826116e8565b92610575603d825180967f646174613a6170706c69636174696f6e2f6a736f6e3b6261736536342c000000878301526105658151809289868601910161159e565b810103601d8101875201856116e8565b519282849384528301906115c1565b87945081939291528383205b8284106105ab575050508201016103e760de6103ec846103c9565b80548685018601528794909301928101610590565b60ff19168189015294151560051b870190940194506103e7935060de92506103ec91508590506103c9565b838234610242576080366003190112610242576106066115e6565b61060e611601565b9060643567ffffffffffffffff811161064f573660238201121561064f5761064c9381602461064293369301359101611726565b9160443591611901565b80f35b8480fd5b5090346101f057806003193601126101f05761066d6115e6565b906024359182151580930361064f576001600160a01b0316923384146106dc5750338452600560205280842083855260205280842060ff1981541660ff8416179055519081527f17307eab39ab6107e8899845ad3d59bd9653f200f220920489ca2b5937696c3160203392a380f35b6020606492519162461bcd60e51b8352820152601960248201527f4552433732313a20617070726f766520746f2063616c6c6572000000000000006044820152fd5b50503461024257816003193601126102425780519082600180549161074283611827565b808652928281169081156107d9575060011461077d575b50505061076b8261030e9403836116e8565b519182916020835260208301906115c1565b94508085527fb10e2d527612073b26eecdfd717e6a320cf44b4afac2b0732d9fcbe2b7fa0cf65b8286106107c15750505061076b82602061030e9582010194610759565b805460208787018101919091529095019481016107a4565b61030e97508693506020925061076b94915060ff191682840152151560051b82010194610759565b50503461024257816003193601126102425760065490516001600160a01b039091168152602090f35b833461031257806003193601126103125761084361175d565b600680546001600160a01b0319811690915581906001600160a01b03167f8be0079c531659141344cd1fd0a4f28419497f9722a3daafe3b4186f6b6457e08280a380f35b50829034610242576020366003190112610242576001600160a01b036108ab6115e6565b169081156108c85760208480858581526003845220549051908152f35b608490602085519162461bcd60e51b8352820152602960248201527f4552433732313a2061646472657373207a65726f206973206e6f7420612076616044820152683634b21037bbb732b960b91b6064820152fd5b5050346102425781600319360112610242576020906008549051908152f35b50346101f05761030e9261094f3661164c565b8451919261095c836116b0565b808352829360969060028114600014610e8c5750506101db925b61097f83611cb9565b9060018203610c77575050855161099581611662565b818152866020958387840152838284015281606085818601528688838b610a8060809786898c01528b60a0809c0152610a7a8451936109d385611694565b8551976109df896116cc565b600797888a526608cc595859995960ca1b998a848201528752610a4b885197610a07896116cc565b8a89526608cc8d4ccc4d9160ca1b988986820152858201528951610a2a816116cc565b8b8152662333323566613360c81b9a8b8783015282015260218406906122c2565b51908c5193610a5985611662565b6096855284015261012c809c8401528b8b8401528c8301528d820152611d34565b90611fd3565b9d610a8d8c60011c611ce7565b60018103610b795750509385610b3b6102fb9f9e9d99958d99958f95610b739f96610b6d9f9b979a610b679f9b60021c9c8c8c82815191610acd83611662565b8183528187840152820152828b8201528a8d82015201528a5194610af086611694565b8b5190610afc826116cc565b8582528382015285528a5190610b11826116cc565b8482528282015281850152895192610b28846116cc565b83528201528782015260218906906122c2565b51948981519e8f610b4b81611662565b6101db815201528d01528b015289015287015260031c90612204565b92611d34565b91611d34565b91612016565b6002919295989b94979a9d9c9396995014610ba2575b505050505050505050505050509061076b565b938e610c3a94610c659f9e9c9996948e610a7a9f9c99958f9e9b971c9d82855191610bcc83611662565b8183528201528285820152828a820152898c82015201528c825195610bf087611694565b835191610bfc836116cc565b8683528201528552815190610c10826116cc565b8482528d8201528c8501525191610c26836116cc565b82528a8201528d82015260218806906122c2565b51938b5197610c4889611662565b6101db89528801526102718b880152860152840152820152611d34565b38808080808080808080808080610b8f565b909695509092919060028703610d835750610d7d949550610b67610b739282610b6d9360051c895196610ca988611662565b80885260a0602098828a820152828d820152826060820152606060808201520152610d468a51610cd881611694565b8b51610ce3816116cc565b600781526608cc595859995960ca1b8a82015281528b51610d03816116cc565b600781526608cc8d4ccc4d9160ca1b8a820152898201528b51610d25816116cc565b60078152662333323566613360c81b8a8201528c82015260218306906122c2565b51838b5198610d548a611662565b60968a528901526102718b89015261012c6060890152608088015260a087015260061c90612204565b9061076b565b9395600314610d96575b5050505061076b565b610e8294955090610a7a929160071c90865192610db284611662565b80845260a06020948286820152828a820152826060820152606060808201520152610e4f8751610de181611694565b8851610dec816116cc565b600781526608cc595859995960ca1b8682015281528851610e0c816116cc565b600781526608cc8d4ccc4d9160ca1b86820152858201528851610e2e816116cc565b60078152662333323566613360c81b868201528982015260218406906122c2565b5190875193610e5d85611662565b609685528401526103b68784015261012c6060840152608083015260a0820152611d34565b9038808080610d8d565b90939060021901610976576103209350610976565b5091346103125760203660031901126103125750610ec160209235611801565b90516001600160a01b039091168152f35b5050346102425761064c90610ee636611617565b91925192610ef3846116b0565b858452611901565b505034610242578160031936011261024257610f1561175d565b8180808047818115610f38575b3390f115610f2e575080f35b51903d90823e3d90fd5b506108fc610f22565b509060208060031936011261128d5782359283151580611282575b1561124e57600854341061121757610fd18351838101904882524286820152858152610f8781611694565b51902084518481014281523360601b91828882015260348152610fa981611694565b51902090865186810191825242603482015260348152610fc881611694565b519020916122e9565b848652600983528386209080519067ffffffffffffffff8211611204578190610ffa8454611827565b601f81116111b6575b508590601f8311600114611153578992611148575b50508160011b916000199060031b1c19161790555b3315611107575060029061105f61105985600052600260205260018060a01b0360406000205416151590565b1561348d565b600084815260026020526040902054611082906001600160a01b03161515611059565b3385526003815282852060018154019055838552528220336001600160601b0360a01b8254161790558033837fddf252ad1be2c89b69c2b068fc378daa952ba7f163c4a11628f55a4df523b3ef8180a46110dd60075461347e565b6007557f2a4a1fd445bcd4c2f9e8c0b3a4fb8aae6cf99713dfc3e865334d546d04885b248280a280f35b915162461bcd60e51b815291820181905260248201527f4552433732313a206d696e7420746f20746865207a65726f20616464726573736044820152606490fd5b015190503880611018565b848a52868a209250601f1984168a5b888282106111a0575050908460019594939210611187575b505050811b01905561102d565b015160001960f88460031b161c1916905538808061117a565b6001859682939686015181550195019301611162565b909150838952858920601f840160051c8101918785106111fa575b90601f859493920160051c01905b8181106111ec5750611003565b8a81558493506001016111df565b90915081906111d1565b634e487b7160e01b885260418452602488fd5b915162461bcd60e51b8152918201526013602482015272139bdd08195b9bdd59da08115512081cd95b9d606a1b6044820152606490fd5b915162461bcd60e51b815291820152601060248201526f151bdad95b881251081a5b9d985b1a5960821b6044820152606490fd5b50606f841115610f5c565b8380fd5b505034610242576020906112ad6112a73661164c565b90611d02565b9051908152f35b83346103125761064c6112c636611617565b916112d96112d4843361199c565b61189f565b611a64565b5050346102425781600319360112610242576020906007549051908152f35b50346101f057816003193601126101f0576113166115e6565b6024359290916001600160a01b039190828061133187611801565b1694169380851461141d578033149081156113fe575b501561139657848652602052842080546001600160a01b0319168317905561136e83611801565b167f8c5be1e5ebec7d5bd14f71427d1e84f3dd0314c0f7b2291e5b200ac8c7c3b9258480a480f35b6020608492519162461bcd60e51b8352820152603d60248201527f4552433732313a20617070726f76652063616c6c6572206973206e6f7420746f60448201527f6b656e206f776e6572206f7220617070726f76656420666f7220616c6c0000006064820152fd5b90508652600560205281862033875260205260ff828720541638611347565b506020608492519162461bcd60e51b8352820152602160248201527f4552433732313a20617070726f76616c20746f2063757272656e74206f776e656044820152603960f91b6064820152fd5b5091346103125760203660031901126103125750610ec160209235611861565b5050346102425781600319360112610242578051908280546114ab81611827565b808552916001918083169081156107d957506001146114d65750505061076b8261030e9403836116e8565b80809650527f290decd9548b62a8d60345a988386fc84ba6bc95484008f6362f93160ef3e5635b82861061151a5750505061076b82602061030e9582010194610759565b805460208787018101919091529095019481016114fd565b925050346101f05760203660031901126101f0573563ffffffff60e01b81168091036101f057602092506380ac58cd60e01b811490811561158d575b811561157c575b5015158152f35b6301ffc9a760e01b14905038611575565b635b5e139f60e01b8114915061156e565b60005b8381106115b15750506000910152565b81810151838201526020016115a1565b906020916115da8151809281855285808601910161159e565b601f01601f1916010190565b600435906001600160a01b03821682036115fc57565b600080fd5b602435906001600160a01b03821682036115fc57565b60609060031901126115fc576001600160a01b039060043582811681036115fc579160243590811681036115fc579060443590565b60409060031901126115fc576004359060243590565b60c0810190811067ffffffffffffffff82111761167e57604052565b634e487b7160e01b600052604160045260246000fd5b6060810190811067ffffffffffffffff82111761167e57604052565b6020810190811067ffffffffffffffff82111761167e57604052565b6040810190811067ffffffffffffffff82111761167e57604052565b90601f8019910116810190811067ffffffffffffffff82111761167e57604052565b67ffffffffffffffff811161167e57601f01601f191660200190565b9291926117328261170a565b9161174060405193846116e8565b8294818452818301116115fc578281602093846000960137010152565b6006546001600160a01b0316330361177157565b606460405162461bcd60e51b815260206004820152602060248201527f4f776e61626c653a2063616c6c6572206973206e6f7420746865206f776e65726044820152fd5b156117bc57565b60405162461bcd60e51b815260206004820152601860248201527f4552433732313a20696e76616c696420746f6b656e20494400000000000000006044820152606490fd5b6000908152600260205260409020546001600160a01b03166118248115156117b5565b90565b90600182811c92168015611857575b602083101461184157565b634e487b7160e01b600052602260045260246000fd5b91607f1691611836565b600081815260026020526040902054611884906001600160a01b031615156117b5565b6000908152600460205260409020546001600160a01b031690565b156118a657565b60405162461bcd60e51b815260206004820152602d60248201527f4552433732313a2063616c6c6572206973206e6f7420746f6b656e206f776e6560448201526c1c881bdc88185c1c1c9bdd9959609a1b6064820152608490fd5b906119259392916119156112d4843361199c565b611920838383611a64565b611b75565b1561192c57565b60405162461bcd60e51b81528061194560048201611949565b0390fd5b60809060208152603260208201527f4552433732313a207472616e7366657220746f206e6f6e20455243373231526560408201527131b2b4bb32b91034b6b83632b6b2b73a32b960711b60608201520190565b906001600160a01b0380806119b084611801565b169316918383149384156119e3575b5083156119cd575b50505090565b6119d991929350611861565b16143880806119c7565b909350600052600560205260406000208260005260205260ff6040600020541692386119bf565b15611a1157565b60405162461bcd60e51b815260206004820152602560248201527f4552433732313a207472616e736665722066726f6d20696e636f72726563742060448201526437bbb732b960d91b6064820152608490fd5b90611a8c91611a7284611801565b6001600160a01b0393918416928492909183168414611a0a565b16918215611b245781611aa991611aa286611801565b1614611a0a565b7fddf252ad1be2c89b69c2b068fc378daa952ba7f163c4a11628f55a4df523b3ef60008481526004602052604081206001600160601b0360a01b9081815416905583825260036020526040822060001981540190558482526040822060018154019055858252600260205284604083209182541617905580a4565b60405162461bcd60e51b8152602060048201526024808201527f4552433732313a207472616e7366657220746f20746865207a65726f206164646044820152637265737360e01b6064820152608490fd5b9293600093909291803b15611c8b57948491611bcf9660405180948193630a85bd0160e11b9788845233600485015260018060a01b0380921660248501526044840152608060648401528260209b8c9760848301906115c1565b0393165af1849181611c4b575b50611c3a575050503d600014611c32573d611bf68161170a565b90611c0460405192836116e8565b81528091833d92013e5b80519182611c2f5760405162461bcd60e51b81528061194560048201611949565b01fd5b506060611c0e565b6001600160e01b0319161492509050565b9091508581813d8311611c84575b611c6381836116e8565b8101031261064f57516001600160e01b03198116810361064f579038611bdc565b503d611c59565b505050915050600190565b91908201809211611ca357565b634e487b7160e01b600052601160045260246000fd5b6064900660018101809111611ca35760148111611cd65750600390565b602d10611ce257600290565b600190565b6064900660018101809111611ca357601e10611ce257600290565b90606490069060018201809211611ca357600303611d285760148111611cd65750600390565b601e10611ce257600290565b611d3e81516134d9565b60209182810191611d4f83516134d9565b6040830192611d5e84516134d9565b936060820196611d6e88516134d9565b96608084015198611d828551855190611c96565b6095199490858101908111611ca357611d9a906134d9565b91611da88451825190611c96565b60311992818401918211611ca357611dc2611dcc926134d9565b9851905190611c96565b918201918211611ca357611de2611dec926134d9565b9351905190611c96565b938401938411611ca357611e36996118249960bf99611e0d611fb7976134d9565b9860296040519e8f809d681e3932b1ba103c1e9160b91b8b8301528a815194859301910161159e565b8b016411103c9e9160d91b6029820152611e59825180938a602e8501910161159e565b016811103bb4b23a341e9160b91b602e820152611e7f825180938960378501910161159e565b016911103432b4b3b43a1e9160b11b6037820152611ea6825180938860418501910161159e565b016711103334b6361e9160c11b6041820152611ecb825180938760498501910161159e565b017f222072783d2231353022202f3e203c706174682066696c6c3d226e6f6e65222060498201527f7374726f6b653d222366666666666622207374726f6b652d77696474683d223260698201527f3022207374726f6b652d6c696e656361703d22726f756e642220643d224d20006089820152611f51825180938660a88501910161159e565b0193600160fd1b948560a8820152611f72825180938660a98501910161159e565b01700102090189818101898181018101810181607d1b60a9820152611fa0825180938560ba8501910161159e565b019260ba840152835193849160bb8501910161159e565b01631110179f60e11b60bb82015203609f8101845201826116e8565b6020612014919392936040519481611ff4879351809286808701910161159e565b82016120088251809386808501910161159e565b010380855201836116e8565b565b6120149193929360405194859183516120378160209687808801910161159e565b830161204b8251809387808501910161159e565b016120088251809386808501910161159e565b60409081519161206d83611662565b60008352600060a06020948286820152828482015282606082015260606080820152015261210d815161209f81611694565b82516120aa816116cc565b600781526608cc595859995960ca1b86820152815282516120ca816116cc565b600781526608cc8d4ccc4d9160ca1b868201528582015282516120ec816116cc565b60078152662333323566613360c81b868201528382015260218406906122c2565b5190609681519461211d86611662565b610320865285015261012c80918501526060840152608083015260a082015290565b60409081519161214e83611662565b60008352600060a060209482868201528284820152826060820152606060808201520152612180815161209f81611694565b51906101db81519461211d86611662565b6040908151916121a083611662565b60008352600060a0602094828682015282848201528260608201526060608082015201526121d2815161209f81611694565b51908051936121e085611662565b6103209081865285015261012c80918501526060840152608083015260a082015290565b9060409182519261221484611662565b60008452600060a0602095828782015282848201528260608201526060608082015201526122b4815161224681611694565b8251612251816116cc565b600781526608cc595859995960ca1b8782015281528251612271816116cc565b600781526608cc8d4ccc4d9160ca1b87820152868201528251612293816116cc565b60078152662333323566613360c81b878201528382015260218506906122c2565b519181519461211d86611662565b9060038110156122d35760051b0190565b634e487b7160e01b600052603260045260246000fd5b61236e6040516122f881611694565b604051612304816116cc565b600781526611b3333333333360c91b60208201528152604051612326816116cc565b60078152662346314631463160c81b6020820152602082015260405161234b816116cc565b600781526611a2a2a31b232360c91b6020820152604082015260078306906122c2565b5190604051926123e3604b8560208101957f3c726563742077696474683d223132353022206865696768743d223132353022875266103334b6361e9160c91b60408301526123c681518092602060478601910161159e565b8101631110179f60e11b604782015203602b8101875201856116e8565b6003820691600183018311611ca357604051906123ff826116b0565b600082528161240d82611cb9565b600181036131a95750509061250b90600060a060405161242c81611662565b828152826020820152826040820152826060820152606060808201520152610a7a6124d260405161245c81611694565b604051612468816116cc565b600781526608cc595859995960ca1b6020820152815260405161248a816116cc565b600781526608cc8d4ccc4d9160ca1b602082015260208201526040516124af816116cc565b60078152662333323566613360c81b6020820152604082015260218606906122c2565b51604051906124e082611662565b609682526096602083015261012c604083015261012c606083015260808201528460a0820152611d34565b90816125198260011c611ce7565b600181036130da5750509260669492612639651e17b9bb339f60d11b9386610b73610b6d610b676118249c9a60021c93600060a060405161255981611662565b8281528260208201528260408201528260608201526060608082015201526125fc60405161258681611694565b604051612592816116cc565b600781526608cc595859995960ca1b602082015281526040516125b4816116cc565b600781526608cc8d4ccc4d9160ca1b602082015260208201526040516125d9816116cc565b60078152662333323566613360c81b6020820152604082015260218706906122c2565b51946040519561260b87611662565b6101db87526096602088015261012c604088015261012c6060880152608087015260a086015260031c61205e565b975b604051612647816116b0565b600081528061265584611cb9565b9060018203612f9b5750506040519261266d84611662565b6000845260006020850152600060408501526060936000858201526080908582820152600060a080920152604051956126a587611694565b604051926126b2846116cc565b600784526608cc595859995960ca1b938460208201528852604051936126d7856116cc565b600785526608cc8d4ccc4d9160ca1b9485602082015260208a0152612727604051996127028b6116cc565b60078b52662333323566613360c81b9a8b6020820152604082015260218806906122c2565b5190612767604051986127398a611662565b60968a52610a7a6101db9a8b602082015261012c958660408301528689830152878201528a89820152611d34565b996127748860011c611ce7565b60018103612f185750938793610b73979361282b610b6d9894610b67986128599e9f9d9c60021c976000886040516127ab81611662565b828152826020820152826040820152828a82015289898201520152604051926127d384611694565b604051906127e0826116cc565b6007825260208201528352604051906127f8826116cc565b600782526020820152602083015260405190612813826116cc565b600782526020820152604082015260218706906122c2565b51926040519a61283a8c611662565b808c5260208c01528160408c01528a015288015286015260031c61213f565b905b60405190612868826116b0565b600082528161287682611cb9565b60018103612de3575050906128ff90600060a060405161289581611662565b828152826020820152826040820152826060820152606060808201520152610a7a6128c560405161245c81611694565b51604051906128d382611662565b60968252610320602083015261012c604083015261012c606083015260808201528460a0820152611d34565b908161290d8260011c611ce7565b60018103612ccb5750509081610b73610b6d610b676129a59560021c93600060a060405161293a81611662565b82815282602082015282604082015282606082015260606080820152015261296760405161258681611694565b51946040519561297687611662565b6101db8752610320602088015261012c604088015261012c6060880152608087015260a086015260031c612191565b915b6103a26103d491600180820114600014612c9f57505050612c8c610118926129da6129d461014a956134d9565b946134d9565b92612bde61023460405180966020820198701e3932b1ba103c1e911c9c1811103c9e9160791b8a52612a1681518092602060318701910161159e565b82017f222077696474683d22333022206865696768743d223330222066696c6c3d22238060318301527f666666666666222072783d223135223e3c616e696d61746520617474726962758060518401527f7465547970653d22584d4c22206174747269627574654e616d653d2266696c6c8060718501527f222076616c7565733d222366666666666630303b2366666666666630303b2366908160918601527f666666666630303b2366666666666630303b2366666666666630303b23666666928360b18701527f6666663b2366666666666630303b2366666666666630303b2366666666666630948560d18801527f303b2366666666666630303b22206475723d223130732220726570656174436f968760f18201527f756e743d22696e646566696e697465222f3e3c2f726563743e3c726563742078610111820152691e911c999811103c9e9160b11b610131820152885190612b7f8261013b9b60208d8501910161159e565b019788015261015b87015261017b86015261019b8501526101bb8401526101db8301526101fb8201527f756e743d22696e646566696e697465222f3e3c2f726563743e0000000000000061021b820152036102148101875201856116e8565b6040519a8b987f3c7376672076696577426f783d22302030203132353020313235302220786d6c60208b01527f6e733d22687474703a2f2f7777772e77332e6f72672f323030302f737667223e60408b015251612c418160609a8b8d019061159e565b8901612c568251809360208c8501910161159e565b01612c6a8251809360208b8501910161159e565b01612c7e8251809360208a8501910161159e565b01915180938684019061159e565b01918201520360468101845201826116e8565b919391600101600214612cbd575b906129da6129d4612c8c936134d9565b5061028f925061025d612cad565b929492909190600214612ce0575b50506129a7565b612ddb929450610a7a9060041c600060a0604051612cfd81611662565b828152826020820152826040820152826060820152606060808201520152612da0604051612d2a81611694565b604051612d36816116cc565b600781526608cc595859995960ca1b60208201528152604051612d58816116cc565b600781526608cc8d4ccc4d9160ca1b60208201526020820152604051612d7d816116cc565b60078152662333323566613360c81b6020820152604082015260218306906122c2565b519060405191612daf83611662565b6101db83526103206020840152610271604084015261012c6060840152608083015260a0820152611d34565b913880612cd9565b60028103612e805750509081610b73610b6d610b67612e7a9560051c93600060a0604051612e1081611662565b828152826020820152826040820152826060820152606060808201520152612e3d60405161258681611694565b519460405195612e4c87611662565b609687526103206020880152610271604088015261012c6060880152608087015260a086015260061c612191565b916129a7565b929492909190600314612e945750506129a7565b612ddb929450610a7a9060071c600060a0604051612eb181611662565b828152826020820152826040820152826060820152606060808201520152612ede604051612d2a81611694565b519060405191612eed83611662565b6096835261032060208401526103b6604084015261012c6060840152608083015260a0820152611d34565b60029098919293949596979814612f38575b50505050505050505061285b565b612f8c999a98969492610a7a98969492612f5f9260041c976000886040516127ab81611662565b519260405196612f6e88611662565b80885260208801526102716040880152860152840152820152611d34565b90388080808080808080612f2a565b60028295921460001461303d5750613037929350610b73610b6d610b678360051c93600060a0604051612fcd81611662565b828152826020820152826040820152826060820152606060808201520152612ffa60405161258681611694565b51946040519561300987611662565b609687526101db6020880152610271604088015261012c6060880152608087015260a086015260061c61213f565b9061285b565b919360031461304e575b505061285b565b6130d2929350610a7a9060071c600060a060405161306b81611662565b828152826020820152826040820152826060820152606060808201520152613098604051612d2a81611694565b5190604051916130a783611662565b609683526101db60208401526103b6604084015261012c6060840152608083015260a0820152611d34565b903880613047565b929792909190600214613103575b5050611824949260669492651e17b9bb339f60d11b9261263b565b651e17b9bb339f60d11b9297509261319b611824979592610a7a6066989660041c600060a060405161313481611662565b828152826020820152826040820152826060820152606060808201520152613161604051612d2a81611694565b51906040519161317083611662565b6101db835260966020840152610271604084015261012c6060840152608083015260a0820152611d34565b9792509294819496506130e8565b600281036132585750509260669492613252651e17b9bb339f60d11b9386610b73610b6d610b676118249c9a60051c93600060a06040516131e981611662565b82815282602082015282604082015282606082015260606080820152015261321660405161258681611694565b51946040519561322587611662565b6096875260966020880152610271604088015261012c6060880152608087015260a086015260061c61205e565b9761263b565b929792909190600314613280575050611824949260669492651e17b9bb339f60d11b9261263b565b651e17b9bb339f60d11b9297509261319b611824979592610a7a6066989660071c600060a06040516132b181611662565b8281528260208201528260408201528260608201526060608082015201526132de604051612d2a81611694565b5190604051916132ed83611662565b60968352609660208401526103b6604084015261012c6060840152608083015260a0820152611d34565b80511561346a5760405161332a81611694565b604081527f4142434445464748494a4b4c4d4e4f505152535455565758595a61626364656660208201527f6768696a6b6c6d6e6f707172737475767778797a303132333435363738392b2f60408201528151600292838201809211611ca35760039182900480851b94906001600160fe1b03811603611ca357926133c66133b08661170a565b956133be60405197886116e8565b80875261170a565b6020860190601f190136823793829183518401925b8381106134195750505050510680600114613406576002146133fb575090565b603d90600019015390565b50603d9081600019820153600119015390565b85600491979293949701918251600190603f9082828260121c16880101518453828282600c1c16880101518385015382828260061c16880101518885015316850101518782015301959291906133db565b50604051613477816116b0565b6000815290565b6000198114611ca35760010190565b1561349457565b60405162461bcd60e51b815260206004820152601c60248201527f4552433732313a20746f6b656e20616c7265616479206d696e746564000000006044820152606490fd5b801561359b5780816000925b6135875750806134f48361170a565b9261350260405194856116e8565b808452601f196135118261170a565b01366020860137905b61352357505090565b600019810190808211611ca3578192600a9283820493808502908582041485151715611ca3578203918211611ca35760ff809216603001918211611ca357855111156122d35760f81b6001600160f81b03191660001a908401601f0153908161351a565b91613593600a9161347e565b9204806134e5565b506040516135a8816116cc565b60018152600360fc1b60208201529056fea264697066735822122083f0ea5559cbe14c2e4ef9f80ae0f7dc962a830d63dc6f41c05a1ed0385845e764736f6c63430008110033",
    "linkReferences": {}
  },
  "methodIdentifiers": {
    "approve(address,uint256)": "095ea7b3",
    "balanceOf(address)": "70a08231",
    "ballSvg((uint256,uint256,uint256,uint256,string,uint256))": "db08bd50",
    "drawBallSize(uint256,uint256)": "28c825f1",
    "generateFinalSvg(uint256,uint256,uint256)": "ca424d76",
    "generateLineSvg(uint256,uint256)": "65161ac9",
    "getApproved(uint256)": "081812fc",
    "isApprovedForAll(address,address)": "e985e9c5",
    "mintBallsOfArt(uint256)": "2afeb533",
    "mintPrice()": "6817c76c",
    "name()": "06fdde03",
    "owner()": "8da5cb5b",
    "ownerOf(uint256)": "6352211e",
    "renounceOwnership()": "715018a6",
    "safeTransferFrom(address,address,uint256)": "42842e0e",
    "safeTransferFrom(address,address,uint256,bytes)": "b88d4fde",
    "setApprovalForAll(address,bool)": "a22cb465",
    "supportsInterface(bytes4)": "01ffc9a7",
    "symbol()": "95d89b41",
    "tokenURI(uint256)": "c87b56dd",
    "totalSupply()": "18160ddd",
    "transferFrom(address,address,uint256)": "23b872dd",
    "transferOwnership(address)": "f2fde38b",
    "withdraw()": "3ccfd60b"
  },
  "id": 12
}